:02000000F22BE1
:1004EC000800080083123C0881000800003407341F
:1004FC00003407340B0CA000200C013908009A22A0
:10050C00762277229122B2220800A0002008BC009B
:10051C0020088100080083161F088F3910389F00AF
:10052C0083129F131F14080085010D30831685005C
:10053C0004309F00083095000730831299000800A2
:10054C00A0002008BB008316010883122006F8398E
:10055C002006831681000800831681128111010880
:10056C0083123B06F8393B068316810083123C0844
:10057C0081000B110800A4002408A200A20DA20DFA
:10058C001F082206F33922069F001F141A30A200FE
:10059C00A20BCE2A000083129F149F18D32A1E0888
:1005AC00A200A3012208A0002308A1000800A901B1
:1005BC00AA01251CE72A2708A9070318AA0A280854
:1005CC00AA0701300310A70DA80DFF3E031DE82A52
:1005DC0001300310A60CA50CFF3E031DEF2A2508C5
:1005EC002604031DDF2A2A08A6002908A5000800F6
:1005FC00A5012308031908002008250783169B0072
:10060C001C14831225082207A400240884008316D6
:10061C001A08831380001C1001308312A4002408D4
:10062C0083169B0701308312A4002408A507230816
:10063C00250203180800022B83169C18222B831208
:10064C00A5012308031908002008250783169B0021
:10065C00831225082207A4002408840083130008B1
:10066C0083169A001C158B1755309D00AA309D00DF
:10067C009C148B139C18402B1C1101308312A4006A
:10068C002408A50723082502031808002A2B852215
:10069C00B3013808B5003908B6003A08B700FF3086
:1006AC00AF00B001003005180130B400B1013403C3
:1006BC00031D652B3008031D652BB101B10A3108F0
:1006CC00B200DE2B85197B2B0330B3000030A00069
:1006DC00A1003530A2000330A300FE223608A6226A
:1006EC00831235088B22B222EF2B7822B301B30A86
:1006FC00EF2B3203031DEF2B8022013A031D8D2BB0
:10070C000230B3000130AB002B08B6078F2B013041
:10071C00B6023608A6227822EF2B3203031DEF2BEC
:10072C008022003A03199C2BB222A02B0130AB0083
:10073C002B08B50735082F06031DBB2B0430B3005F
:10074C003509AD000230C1222108A6002008A50001
:10075C002D08AB00AC012B08A7002C08A800DD224B
:10076C002608AE002E083507B7003508AF0035084F
:10077C008B22EF2B0330B3000030A000A1003530EA
:10078C00A2000330A3002223EF2B3403031DD42B30
:10079C00370801020318D42B8514D52B8510340887
:1007AC00031DD92B78228022003A031D792BEF2BC5
:1007BC003308003A0319682B013A03197F2B033ACB
:1007CC000319932B013A0319CB2B073A0319C02BAE
:1007DC00EF2B3408B000582B7C22B8007D22B900D6
:1007EC007E22BA007F22BB00BC01BD01BE01830189
:0207FC004D2B83
:08400000FF3FFF3FFF3FFF3FC0
:02400E009431EB
:00000001FF
