:02000000F82BDB
:10050A0008000800073483123808810008000B0C21
:10051A00A000200C01390800A622852286229D22ED
:10052A00B2220800A0002008B8003808810008009C
:10053A0083161F088F3910389F0083129F131F14C8
:10054A00080085010D308316850004309F000830AD
:10055A00950007308312990008000730831681003E
:10056A00010883123B06F8393B0683168100831281
:10057A00380881000B110800A4002408A200A20D6B
:10058A00A20D1F082206F33922069F001F141A30F3
:10059A00A200A20BCE2A000083129F149F18D32A0E
:1005AA001E08A200A3012208A0002308A100080037
:1005BA00A901AA01251CE72A2708A9070318AA0ADC
:1005CA002808AA0701300310A70DA80DFF3E031D36
:1005DA00E82A01300310A60CA50CFF3E031DEF2AE2
:1005EA0025082604031DDF2A2A08A6002908A500D3
:1005FA000800200883169B008312A501230803190B
:10060A00080083161C14831225082207A400240854
:10061A00840083161A08831380001C100130831289
:10062A00A400240883169B0701308312A40024081F
:10063A00A5072308250203180800062B83169C1811
:10064A00232B8312200883169B008312A5012308FB
:10065A000319080025082207A4002408840083132C
:10066A00000883169A001C158B1755309D00AA3076
:10067A009D009C148B139C18402B1C110130831273
:10068A00A4002408A50723082502031808002F2B15
:10069A009122B301FF30AF00B001003005180130DC
:1006AA00B400B1013403031D5F2B3008031D5F2B17
:1006BA00B101B10A3108B200E42B85197B2B033052
:1006CA00B3000030A000A1003530A2000330A3001F
:1006DA00FE228316010883123606F8393606831677
:1006EA008100831235089722B222F52B8822B301A2
:1006FA00B30AF52B3203031DF52B8C22013A031D95
:10070A008D2B0230B3000130AB002B08B6078F2BBC
:10071A000130B6028316010883123606F839360606
:10072A00831681008822F52B3203031DF52B8C22B8
:10073A00003A0319A22BB222A62B0130AB002B08D8
:10074A00B50735082F06031DC12B0430B300350940
:10075A00AD000230C1222108A6002008A5002D08FC
:10076A00AB00AC012B08A7002C08A800DD22260844
:10077A00AE002E083507B7003508AF0035089722B6
:10078A00F52B0330B3000030A000A1003530A200E1
:10079A000330A3002323F52B3403031DDA2B370878
:1007AA0001020318DA2B8514DB2B85103408031D8C
:1007BA00DF2B88228C22003A031D792BF52B330874
:1007CA00003A0319622B013A03197F2B033A0319E2
:1007DA00992B013A0319D12B073A0319C62BF52B8A
:1007EA003408B000522B8722BB00B801B901BA0104
:0407FA0083014D2BFF
:08400000FF3FFF3FFF3FFF3FC0
:02400E009431EB
:00000001FF
